:10000000753C329090037489F0C2AD7A00D2D590DD
:100010009002E044FEB4FE020125909002E044FD0F
:10002000B4FD1A0131C2D1D2AD9090017400F0013B
:100030000BD2D1D2AD9090007400F0010B20AD0234
:10004000010BBAFF06B2D57A00015C20D507EA039E
:100050004480FA015CEA234401FA015C20D10AEAF7
:10006000909000F0117302000FEA909001F011736C
:1000700002000FAF3C7E147D501DBD00FC1EBE0073
:06008000F61FBF00F02294
:00000001FF
